// Copyright 2014 The go-ethereum Authors
// This file is part of the go-ethereum library.
//
// The go-ethereum library is free software: you can redistribute it and/or modify
// it under the terms of the GNU Lesser General Public License as published by
// the Free Software Foundation, either version 3 of the License, or
// (at your option) any later version.
//
// The go-ethereum library is distributed in the hope that it will be useful,
// but WITHOUT ANY WARRANTY; without even the implied warranty of
// MERCHANTABILITY or FITNESS FOR A PARTICULAR PURPOSE. See the
// GNU Lesser General Public License for more details.
//
// You should have received a copy of the GNU Lesser General Public License
// along with the go-ethereum library. If not, see <http://www.gnu.org/licenses/>.

package types

import (
	"bytes"
	gomath "math"
	"math/big"
	"reflect"
	"testing"

	"github.com/ethereum/go-ethereum/common"
	"github.com/ethereum/go-ethereum/common/math"
	"github.com/ethereum/go-ethereum/crypto"
	"github.com/ethereum/go-ethereum/internal/blocktest"
	"github.com/ethereum/go-ethereum/params"
	"github.com/ethereum/go-ethereum/rlp"
	"github.com/stretchr/testify/require"
)

// from bcValidBlockTest.json, "SimpleTx"
func TestBlockEncoding(t *testing.T) {
	blockEnc := common.FromHex("f90260f901f9a083cafc574e1f51ba9dc0568fc617a08ea2429fb384059c972f13b19fa1c8dd55a01dcc4de8dec75d7aab85b567b6ccd41ad312451b948a7413f0a142fd40d49347948888f1f195afa192cfee860698584c030f4c9db1a0ef1552a40b7165c3cd773806b9e0c165b75356e0314bf0706f279c729f51e017a05fe50b260da6308036625b850b5d6ced6d0a9f814c0688bc91ffb7b7a3a54b67a0bc37d79753ad738a6dac4921e57392f145d8887476de3f783dfa7edae9283e52b90100000000000000000000000000000000000000000000000000000000000000000000000000000000000000000000000000000000000000000000000000000000000000000000000000000000000000000000000000000000000000000000000000000000000000000000000000000000000000000000000000000000000000000000000000000000000000000000000000000000000000000000000000000000000000000000000000000000000000000000000000000000000000000000000000000000000000000000000000000000000000000000000000000000000000000000000000000000000000000000000000000000000000000000000000000000008302000001832fefd8825208845506eb0780a0bd4472abb6659ebe3ee06ee4d7b72a00a9f4d001caca51342001075469aff49888a13a5a8c8f2bb1c4f861f85f800a82c35094095e7baea6a6c7c4c2dfeb977efac326af552d870a801ba09bea4c4daac7c7c52e093e6a4c35dbbcf8856f1af7b059ba20253e70848d094fa08a8fae537ce25ed8cb5af9adac3f141af69bd515bd2ba031522df09b97dd72b1c0")
	var block Block
	if err := rlp.DecodeBytes(blockEnc, &block); err != nil {
		t.Fatal("decode error: ", err)
	}

	check := func(f string, got, want interface{}) {
		if !reflect.DeepEqual(got, want) {
			t.Errorf("%s mismatch: got %v, want %v", f, got, want)
		}
	}
	check("Difficulty", block.Difficulty(), big.NewInt(131072))
	check("GasLimit", block.GasLimit(), uint64(3141592))
	check("GasUsed", block.GasUsed(), uint64(21000))
	check("Coinbase", block.Coinbase(), common.HexToAddress("8888f1f195afa192cfee860698584c030f4c9db1"))
	check("MixDigest", block.MixDigest(), common.HexToHash("bd4472abb6659ebe3ee06ee4d7b72a00a9f4d001caca51342001075469aff498"))
	check("Root", block.Root(), common.HexToHash("ef1552a40b7165c3cd773806b9e0c165b75356e0314bf0706f279c729f51e017"))
	check("Hash", block.Hash(), common.HexToHash("0a5843ac1cb04865017cb35a57b50b07084e5fcee39b5acadade33149f4fff9e"))
	check("Nonce", block.Nonce(), uint64(0xa13a5a8c8f2bb1c4))
	check("Time", block.Time(), uint64(1426516743))
	check("Size", block.Size(), uint64(len(blockEnc)))

	tx1 := NewTransaction(0, common.HexToAddress("095e7baea6a6c7c4c2dfeb977efac326af552d87"), big.NewInt(10), 50000, big.NewInt(10), nil)
	tx1, _ = tx1.WithSignature(HomesteadSigner{}, common.Hex2Bytes("9bea4c4daac7c7c52e093e6a4c35dbbcf8856f1af7b059ba20253e70848d094f8a8fae537ce25ed8cb5af9adac3f141af69bd515bd2ba031522df09b97dd72b100"))
	check("len(Transactions)", len(block.Transactions()), 1)
	check("Transactions[0].Hash", block.Transactions()[0].Hash(), tx1.Hash())
	ourBlockEnc, err := rlp.EncodeToBytes(&block)
	if err != nil {
		t.Fatal("encode error: ", err)
	}
	if !bytes.Equal(ourBlockEnc, blockEnc) {
		t.Errorf("encoded block mismatch:\ngot:  %x\nwant: %x", ourBlockEnc, blockEnc)
	}
}

func TestEIP1559BlockEncoding(t *testing.T) {
	blockEnc := common.FromHex("f9030bf901fea083cafc574e1f51ba9dc0568fc617a08ea2429fb384059c972f13b19fa1c8dd55a01dcc4de8dec75d7aab85b567b6ccd41ad312451b948a7413f0a142fd40d49347948888f1f195afa192cfee860698584c030f4c9db1a0ef1552a40b7165c3cd773806b9e0c165b75356e0314bf0706f279c729f51e017a05fe50b260da6308036625b850b5d6ced6d0a9f814c0688bc91ffb7b7a3a54b67a0bc37d79753ad738a6dac4921e57392f145d8887476de3f783dfa7edae9283e52b90100000000000000000000000000000000000000000000000000000000000000000000000000000000000000000000000000000000000000000000000000000000000000000000000000000000000000000000000000000000000000000000000000000000000000000000000000000000000000000000000000000000000000000000000000000000000000000000000000000000000000000000000000000000000000000000000000000000000000000000000000000000000000000000000000000000000000000000000000000000000000000000000000000000000000000000000000000000000000000000000000000000000000000000000000000000008302000001832fefd8825208845506eb0780a0bd4472abb6659ebe3ee06ee4d7b72a00a9f4d001caca51342001075469aff49888a13a5a8c8f2bb1c4843b9aca00f90106f85f800a82c35094095e7baea6a6c7c4c2dfeb977efac326af552d870a801ba09bea4c4daac7c7c52e093e6a4c35dbbcf8856f1af7b059ba20253e70848d094fa08a8fae537ce25ed8cb5af9adac3f141af69bd515bd2ba031522df09b97dd72b1b8a302f8a0018080843b9aca008301e24194095e7baea6a6c7c4c2dfeb977efac326af552d878080f838f7940000000000000000000000000000000000000001e1a0000000000000000000000000000000000000000000000000000000000000000080a0fe38ca4e44a30002ac54af7cf922a6ac2ba11b7d22f548e8ecb3f51f41cb31b0a06de6a5cbae13c0c856e33acf021b51819636cfc009d39eafb9f606d546e305a8c0")
	var block Block
	if err := rlp.DecodeBytes(blockEnc, &block); err != nil {
		t.Fatal("decode error: ", err)
	}

	check := func(f string, got, want interface{}) {
		if !reflect.DeepEqual(got, want) {
			t.Errorf("%s mismatch: got %v, want %v", f, got, want)
		}
	}

	check("Difficulty", block.Difficulty(), big.NewInt(131072))
	check("GasLimit", block.GasLimit(), uint64(3141592))
	check("GasUsed", block.GasUsed(), uint64(21000))
	check("Coinbase", block.Coinbase(), common.HexToAddress("8888f1f195afa192cfee860698584c030f4c9db1"))
	check("MixDigest", block.MixDigest(), common.HexToHash("bd4472abb6659ebe3ee06ee4d7b72a00a9f4d001caca51342001075469aff498"))
	check("Root", block.Root(), common.HexToHash("ef1552a40b7165c3cd773806b9e0c165b75356e0314bf0706f279c729f51e017"))
	check("Hash", block.Hash(), common.HexToHash("c7252048cd273fe0dac09650027d07f0e3da4ee0675ebbb26627cea92729c372"))
	check("Nonce", block.Nonce(), uint64(0xa13a5a8c8f2bb1c4))
	check("Time", block.Time(), uint64(1426516743))
	check("Size", block.Size(), uint64(len(blockEnc)))
	check("BaseFee", block.BaseFee(), new(big.Int).SetUint64(params.InitialBaseFee))

	tx1 := NewTransaction(0, common.HexToAddress("095e7baea6a6c7c4c2dfeb977efac326af552d87"), big.NewInt(10), 50000, big.NewInt(10), nil)
	tx1, _ = tx1.WithSignature(HomesteadSigner{}, common.Hex2Bytes("9bea4c4daac7c7c52e093e6a4c35dbbcf8856f1af7b059ba20253e70848d094f8a8fae537ce25ed8cb5af9adac3f141af69bd515bd2ba031522df09b97dd72b100"))

	addr := common.HexToAddress("0x0000000000000000000000000000000000000001")
	accesses := AccessList{AccessTuple{
		Address: addr,
		StorageKeys: []common.Hash{
			{0},
		},
	}}
	to := common.HexToAddress("095e7baea6a6c7c4c2dfeb977efac326af552d87")
	txdata := &DynamicFeeTx{
		ChainID:    big.NewInt(1),
		Nonce:      0,
		To:         &to,
		Gas:        123457,
		GasFeeCap:  new(big.Int).Set(block.BaseFee()),
		GasTipCap:  big.NewInt(0),
		AccessList: accesses,
		Data:       []byte{},
	}
	tx2 := NewTx(txdata)
	tx2, err := tx2.WithSignature(LatestSignerForChainID(big.NewInt(1)), common.Hex2Bytes("fe38ca4e44a30002ac54af7cf922a6ac2ba11b7d22f548e8ecb3f51f41cb31b06de6a5cbae13c0c856e33acf021b51819636cfc009d39eafb9f606d546e305a800"))
	if err != nil {
		t.Fatal("invalid signature error: ", err)
	}

	check("len(Transactions)", len(block.Transactions()), 2)
	check("Transactions[0].Hash", block.Transactions()[0].Hash(), tx1.Hash())
	check("Transactions[1].Hash", block.Transactions()[1].Hash(), tx2.Hash())
	check("Transactions[1].Type", block.Transactions()[1].Type(), tx2.Type())
	ourBlockEnc, err := rlp.EncodeToBytes(&block)
	if err != nil {
		t.Fatal("encode error: ", err)
	}
	if !bytes.Equal(ourBlockEnc, blockEnc) {
		t.Errorf("encoded block mismatch:\ngot:  %x\nwant: %x", ourBlockEnc, blockEnc)
	}
}

func TestEIP2718BlockEncoding(t *testing.T) {
	blockEnc := common.FromHex("f90319f90211a00000000000000000000000000000000000000000000000000000000000000000a01dcc4de8dec75d7aab85b567b6ccd41ad312451b948a7413f0a142fd40d49347948888f1f195afa192cfee860698584c030f4c9db1a0ef1552a40b7165c3cd773806b9e0c165b75356e0314bf0706f279c729f51e017a0e6e49996c7ec59f7a23d22b83239a60151512c65613bf84a0d7da336399ebc4aa0cafe75574d59780665a97fbfd11365c7545aa8f1abf4e5e12e8243334ef7286bb901000000000000000000000000000000000000000000000000000000000000000000000000000000000000000000000000000000000000000000000000000000000000000000000000000000000000000000000000000000000000000000000000000000000000000000000000000000000000000000000000000000000000000000000000000000000000000000000000000000000000000000000000000000000000000000000000000000000000000000000000000000000000000000000000000000000000000000000000000000000000000000000000000000000000000000000000000000000000000000000000000000000000000000000000000000000083020000820200832fefd882a410845506eb0796636f6f6c65737420626c6f636b206f6e20636861696ea0bd4472abb6659ebe3ee06ee4d7b72a00a9f4d001caca51342001075469aff49888a13a5a8c8f2bb1c4f90101f85f800a82c35094095e7baea6a6c7c4c2dfeb977efac326af552d870a801ba09bea4c4daac7c7c52e093e6a4c35dbbcf8856f1af7b059ba20253e70848d094fa08a8fae537ce25ed8cb5af9adac3f141af69bd515bd2ba031522df09b97dd72b1b89e01f89b01800a8301e24194095e7baea6a6c7c4c2dfeb977efac326af552d878080f838f7940000000000000000000000000000000000000001e1a0000000000000000000000000000000000000000000000000000000000000000001a03dbacc8d0259f2508625e97fdfc57cd85fdd16e5821bc2c10bdd1a52649e8335a0476e10695b183a87b0aa292a7f4b78ef0c3fbe62aa2c42c84e1d9c3da159ef14c0")
	var block Block
	if err := rlp.DecodeBytes(blockEnc, &block); err != nil {
		t.Fatal("decode error: ", err)
	}

	check := func(f string, got, want interface{}) {
		if !reflect.DeepEqual(got, want) {
			t.Errorf("%s mismatch: got %v, want %v", f, got, want)
		}
	}
	check("Difficulty", block.Difficulty(), big.NewInt(131072))
	check("GasLimit", block.GasLimit(), uint64(3141592))
	check("GasUsed", block.GasUsed(), uint64(42000))
	check("Coinbase", block.Coinbase(), common.HexToAddress("8888f1f195afa192cfee860698584c030f4c9db1"))
	check("MixDigest", block.MixDigest(), common.HexToHash("bd4472abb6659ebe3ee06ee4d7b72a00a9f4d001caca51342001075469aff498"))
	check("Root", block.Root(), common.HexToHash("ef1552a40b7165c3cd773806b9e0c165b75356e0314bf0706f279c729f51e017"))
	check("Nonce", block.Nonce(), uint64(0xa13a5a8c8f2bb1c4))
	check("Time", block.Time(), uint64(1426516743))
	check("Size", block.Size(), uint64(len(blockEnc)))

	// Create legacy tx.
	to := common.HexToAddress("095e7baea6a6c7c4c2dfeb977efac326af552d87")
	tx1 := NewTx(&LegacyTx{
		Nonce:    0,
		To:       &to,
		Value:    big.NewInt(10),
		Gas:      50000,
		GasPrice: big.NewInt(10),
	})
	sig := common.Hex2Bytes("9bea4c4daac7c7c52e093e6a4c35dbbcf8856f1af7b059ba20253e70848d094f8a8fae537ce25ed8cb5af9adac3f141af69bd515bd2ba031522df09b97dd72b100")
	tx1, _ = tx1.WithSignature(HomesteadSigner{}, sig)

	// Create ACL tx.
	addr := common.HexToAddress("0x0000000000000000000000000000000000000001")
	tx2 := NewTx(&AccessListTx{
		ChainID:    big.NewInt(1),
		Nonce:      0,
		To:         &to,
		Gas:        123457,
		GasPrice:   big.NewInt(10),
		AccessList: AccessList{{Address: addr, StorageKeys: []common.Hash{{0}}}},
	})
	sig2 := common.Hex2Bytes("3dbacc8d0259f2508625e97fdfc57cd85fdd16e5821bc2c10bdd1a52649e8335476e10695b183a87b0aa292a7f4b78ef0c3fbe62aa2c42c84e1d9c3da159ef1401")
	tx2, _ = tx2.WithSignature(NewEIP2930Signer(big.NewInt(1)), sig2)

	check("len(Transactions)", len(block.Transactions()), 2)
	check("Transactions[0].Hash", block.Transactions()[0].Hash(), tx1.Hash())
	check("Transactions[1].Hash", block.Transactions()[1].Hash(), tx2.Hash())
	check("Transactions[1].Type()", block.Transactions()[1].Type(), uint8(AccessListTxType))

	ourBlockEnc, err := rlp.EncodeToBytes(&block)
	if err != nil {
		t.Fatal("encode error: ", err)
	}
	if !bytes.Equal(ourBlockEnc, blockEnc) {
		t.Errorf("encoded block mismatch:\ngot:  %x\nwant: %x", ourBlockEnc, blockEnc)
	}
}

func TestUncleHash(t *testing.T) {
	uncles := make([]*Header, 0)
	h := CalcUncleHash(uncles)
	exp := EmptyUncleHash
	if h != exp {
		t.Fatalf("empty uncle hash is wrong, got %x != %x", h, exp)
	}
}

var benchBuffer = bytes.NewBuffer(make([]byte, 0, 32000))

func BenchmarkEncodeBlock(b *testing.B) {
	block := makeBenchBlock()
	b.ResetTimer()

	for i := 0; i < b.N; i++ {
		benchBuffer.Reset()
		if err := rlp.Encode(benchBuffer, block); err != nil {
			b.Fatal(err)
		}
	}
}

func makeBenchBlock() *Block {
	var (
		key, _   = crypto.GenerateKey()
		txs      = make([]*Transaction, 70)
		receipts = make([]*Receipt, len(txs))
		signer   = LatestSigner(params.TestChainConfig)
		uncles   = make([]*Header, 3)
	)
	header := &Header{
		Difficulty: math.BigPow(11, 11),
		Number:     math.BigPow(2, 9),
		GasLimit:   12345678,
		GasUsed:    1476322,
		Time:       9876543,
		Extra:      []byte("coolest block on chain"),
	}
	for i := range txs {
		amount := math.BigPow(2, int64(i))
		price := big.NewInt(300000)
		data := make([]byte, 100)
		tx := NewTransaction(uint64(i), common.Address{}, amount, 123457, price, data)
		signedTx, err := SignTx(tx, signer, key)
		if err != nil {
			panic(err)
		}
		txs[i] = signedTx
		receipts[i] = NewReceipt(make([]byte, 32), false, tx.Gas())
	}
	for i := range uncles {
		uncles[i] = &Header{
			Difficulty: math.BigPow(11, 11),
			Number:     math.BigPow(2, 9),
			GasLimit:   12345678,
			GasUsed:    1476322,
			Time:       9876543,
			Extra:      []byte("benchmark uncle"),
		}
	}
	return NewBlock(header, &Body{Transactions: txs, Uncles: uncles}, receipts, blocktest.NewHasher())
}

func TestRlpDecodeParentHash(t *testing.T) {
	// A minimum one
	want := common.HexToHash("0x112233445566778899001122334455667788990011223344556677889900aabb")
	if rlpData, err := rlp.EncodeToBytes(&Header{ParentHash: want}); err != nil {
		t.Fatal(err)
	} else {
		if have := HeaderParentHashFromRLP(rlpData); have != want {
			t.Fatalf("have %x, want %x", have, want)
		}
	}
	// And a maximum one
	// | Difficulty  | dynamic| *big.Int       | 0x5ad3c2c71bbff854908 (current mainnet TD: 76 bits) |
	// | Number      | dynamic| *big.Int       | 64 bits               |
	// | Extra       | dynamic| []byte         | 65+32 byte (clique)   |
	// | BaseFee     | dynamic| *big.Int       | 64 bits               |
	mainnetTd := new(big.Int)
	mainnetTd.SetString("5ad3c2c71bbff854908", 16)
	if rlpData, err := rlp.EncodeToBytes(&Header{
		ParentHash: want,
		Difficulty: mainnetTd,
		Number:     new(big.Int).SetUint64(gomath.MaxUint64),
		Extra:      make([]byte, 65+32),
		BaseFee:    new(big.Int).SetUint64(gomath.MaxUint64),
	}); err != nil {
		t.Fatal(err)
	} else {
		if have := HeaderParentHashFromRLP(rlpData); have != want {
			t.Fatalf("have %x, want %x", have, want)
		}
	}
	// Also test a very very large header.
	{
		// The rlp-encoding of the header belowCauses _total_ length of 65540,
		// which is the first to blow the fast-path.
		h := &Header{
			ParentHash: want,
			Extra:      make([]byte, 65041),
		}
		if rlpData, err := rlp.EncodeToBytes(h); err != nil {
			t.Fatal(err)
		} else {
			if have := HeaderParentHashFromRLP(rlpData); have != want {
				t.Fatalf("have %x, want %x", have, want)
			}
		}
	}
	{
		// Test some invalid erroneous stuff
		for i, rlpData := range [][]byte{
			nil,
			common.FromHex("0x"),
			common.FromHex("0x01"),
			common.FromHex("0x3031323334"),
		} {
			if have, want := HeaderParentHashFromRLP(rlpData), (common.Hash{}); have != want {
				t.Fatalf("invalid %d: have %x, want %x", i, have, want)
			}
		}
	}
}

func TestPosvHeaderEncoding(t *testing.T) {
	t.Parallel()

	headerEnc := common.FromHex("0xf902a1a0c3c2cfca60d8e1ccf0978fc8fb12f6d27733c4c6a3a9d569d5ed429622ba09cda01dcc4de8dec75d7aab85b567b6ccd41ad312451b948a7413f0a142fd40d49347940000000000000000000000000000000000000000a0642773bc3fa38e6e813983611de8a0ac7c1720fc96c347b1f4096fa9121d9bc7a0cdd80400faa12fccf96a36c97bd894c4a0947c9cb74e4e9b2b5cf2bd52d7a1fea0775f6dafa4e9a6bac4f8aea9a42463656bb485870af195642e3ae1697ca18343b9010000000000000000000000000000000000000000000000000000000000000000000000000000000000000000000000000000000000000000000000000000000000000000000000000000000000000000000000000000000000000000000000000000000000000000000000000000000000000000000000000000000000000000000000000000000000000000000000000000000000000000000000000000000000000000000000000000000000000000000000000000000000000000000000000000000000000000000000000000000000000000000000000000000000000000000000000000000000000000000000000000000000000000000000000000000000068206a4840501bd008308bfaa845c136e5fb861d88301010084746f6d6f88676f312e31302e35856c696e757800000000000000f04007059a2ac9c0cfa2c7042cfb4e0a423b549a0e923a185e82b9ef57f6123f79d45f70c74fd591368cf57da07b8f0c3022cee90b396978e4caedd3c4a254d501a0000000000000000000000000000000000000000000000000000000000000000088000000000000000080b8416bf465512c9ac73ed151b5430e70e18d49c54ca2a43f44e028f3760a543dd8047c06e6e106ffdab2b40f4e2e8bfe8bbe4111275c41d1608371988ff25acc220e0080")
	header := Header{
		ParentHash:   common.HexToHash("0xc3c2cfca60d8e1ccf0978fc8fb12f6d27733c4c6a3a9d569d5ed429622ba09cd"),
		UncleHash:    common.HexToHash("0x1dcc4de8dec75d7aab85b567b6ccd41ad312451b948a7413f0a142fd40d49347"),
		Coinbase:     common.HexToAddress("0x0000000000000000000000000000000000000000"),
		Root:         common.HexToHash("0x642773bc3fa38e6e813983611de8a0ac7c1720fc96c347b1f4096fa9121d9bc7"),
		TxHash:       common.HexToHash("0xcdd80400faa12fccf96a36c97bd894c4a0947c9cb74e4e9b2b5cf2bd52d7a1fe"),
		ReceiptHash:  common.HexToHash("0x775f6dafa4e9a6bac4f8aea9a42463656bb485870af195642e3ae1697ca18343"),
		Difficulty:   big.NewInt(0x6),
		Number:       big.NewInt(0x6a4),
		GasLimit:     0x501bd00,
		GasUsed:      0x8bfaa,
		Time:         0x5c136e5f,
		Extra:        common.FromHex("0xd88301010084746f6d6f88676f312e31302e35856c696e757800000000000000f04007059a2ac9c0cfa2c7042cfb4e0a423b549a0e923a185e82b9ef57f6123f79d45f70c74fd591368cf57da07b8f0c3022cee90b396978e4caedd3c4a254d501"),
		Posv:         true,
		NewAttestors: []byte{},
		Attestor:     common.FromHex("0x6bf465512c9ac73ed151b5430e70e18d49c54ca2a43f44e028f3760a543dd8047c06e6e106ffdab2b40f4e2e8bfe8bbe4111275c41d1608371988ff25acc220e00"),
		Penalties:    []byte{},
	}

	encoded, err := rlp.EncodeToBytes(&header)
	require.NoError(t, err)

	if !bytes.Equal(encoded, headerEnc) {
		t.Errorf("encoded block mismatch:\ngot:  %x\nwant: %x", encoded, headerEnc)
	}

	var decoded Header
	require.NoError(t, rlp.DecodeBytes(encoded, &decoded))

	if !reflect.DeepEqual(&header, &decoded) {
		t.Errorf("header mismatch: want %v, got %v", header, decoded)
	}
}

func TestPosvBlockEncoding(t *testing.T) {
	t.Parallel()
	blockEnc := common.FromHex("0xf910b3f910aea09f87a16d6442e06874228069210d1dc2ff4d6e8ca3ca5dca6fb71af9b9dce065a01dcc4de8dec75d7aab85b567b6ccd41ad312451b948a7413f0a142fd40d49347940000000000000000000000000000000000000000a021d03f50da45a21dc361bc56415c82133b4d983be7ac8b6a052a8afd00887146a056e81f171bcc55a6ff8345e692c0f86e5b48e01b996cadc001622fb5e363b421a056e81f171bcc55a6ff8345e692c0f86e5b48e01b996cadc001622fb5e363b421b901000000000000000000000000000000000000000000000000000000000000000000000000000000000000000000000000000000000000000000000000000000000000000000000000000000000000000000000000000000000000000000000000000000000000000000000000000000000000000000000000000000000000000000000000000000000000000000000000000000000000000000000000000000000000000000000000000000000000000000000000000000000000000000000000000000000000000000000000000000000000000000000000000000000000000000000000000000000000000000000000000000000000000000000000000000000081968206a4840501bd0080845c5b0eb1b90c05d88301020284746f6d6f88676f312e31302e38856c696e75780000000000000001e798e2b146675436475226b74cbdb6fe76779a01ffbcccdb649ed5c15ad78708d036bcbe599d95032b50915abb2e77ee27b2e46404aa78951e296304c9a24727d79cca294778eabd0d67bc9507b6bd05ca9dc2200a0e2770a1e976e76de5d4c442d2710a3fdcb9613ef62defaa59d4d7189654952e327d1200276667a719285601ec322d5fdc3c58d35c3012101a3241e2afaa3db3be54ffa61e598aab8544126d7e9c0fca4fb8e7c6946fc721bb55b97aecb81347c4a5717848ae40c197f75f43857cc478095a169087dada450380fda8a85a59fa62e12f87435b1a582efea50a36677202f8335e3b5f5f105c84851aeda4a2180a08883e443a7ee5b7670a6a2765251b034ed0d5622deeebcd3f0ed582907eb32989be1b82c4bf317fcafe3d77e8b444c82715d216afe81c5a1cb41c920c2532cbb77be5845b258eca32f31c9ffde3e0354522c077754c084ea0b583b1844d1d50df657b6dce50bac634bf18e2d986d807e94022083a73dc9b09a125ce31644c8328457ff402d9224c061296d2c3263b851482323e304efbf7e6a722d83600ae6876400308489c22a0eeeb0e3eecc92396d4a83ff1d8be8f272b26760f4bba069abe77242bb6cd78888aa6008d5604c27bec558e63e88c243dcc2b82213f0074de98a01503f4d3b43ed9a826255076a81dac6a4e4215968eb70bccce0915e22a32ce3d736e91f5b8d40ed58e00d3225a51447e2fa3c13415d1ddb4ccffdb9c47f39bc70c2eeebc32fafcd1a01e6d13e3f598d06d8292343c33a2a13580f70a8e39cda19f489ec445fbecaf8e62aaca395bfded48545c33da992db4810ca4e2db3edaa43aa986da403de34d69dc3b504f6b2dd861706f763cde1a4b9c2c6145b9474b623450a27260392af43d025479726225a4e00e747ad538b21671919d8a3d505d6108a038d6fc857449a2b72cc13ad62e553fbb27b62a088c9a686bafd1a4f55ba34012edb040daf93e4ad57b1735d31f592dc8fdef715bcfc144e0915ff3d42f32d19143ef3a845effade1b17945b7bd987fa22c9bac89b71f0ded03f6e150ba3147c98fcaf5c1090535af34460ddb8d680939a7d64a05f5aa59e266e5b18cb94a8911897f8ba9c6164a180c8d16e2c98025d1af17baee67976c94c1ab4bce6e15a6b1e96de091c39d8fde4a25b5e5246d4d260349bd3af7a8c7d6666ac124b5d25090c6255074f346288516eca6f82b6503e4e9a5ef90157c511a7abbfce34c2accc457dd76251e3f5f602d4553323c08144fa378b75840928bb3288e9859a88d5396fc9d6a2aebd2d93875fa6c0b35ceb1d96fd85aa6d84f51c9df2b0cbbb681feae7eeef6f70ddb5d12aadc8863d52d76b5a7a0c3e0badf352244ad5e5e4647b7499542a2fee51c292a405c9380a6d85ef168cef95a4ff824b6924b888fda43931912cb60887a511c04bca0ff8d883e4bd05f26d8e4572163cbb1639f3d8f72b56d26daf711af7f1587845366072b4c74c87c2fbae39cd74dc4a7db186274de6662bb6114d31420daa282c0b8cbf92f04d196776670fe10f076539459753b7aabc53fc2186440426a80d525467683dfa4a2cd686173b7a23b5db5b86de605d3582b2723cc66d0da8a4fabf2bba3e29f6fbb1b880e4cdbfe449d02e7c3257b180128f7a4719ff6ce58e6ac7654c7925dceb2bf5ac2ef736871ab3b4352084f13bedb15693cd6bb923a1b80a17a63456481f129ee35ff5ad7fb46f6cb971d73247c2f499e5ed369fddd3f691e32fc5cb4012cb1127c749b9bba3b0602d60a782e78956e7241b9575a7d4e3a699f8d79f1428e39659ae03c1410a466e57e1e827c7c22834f31075b4530e9e0e2b7815ad87f7d85838d005aa5323845f1aadcf2d6e294eedf809ac597bf056b151a63f3ac4614b15d5ffe41fe80e9b712f9b0b736ddfc5f0b58350aaf03c0c36381a2f0340ffbfc672e9b078b787715e50fe75dbf837c7510997cc48c92b31770fcd4a8f37720372284624a7d4b1fbe699b94fca82652a8fd5b65e81e868489fa4a6765f4966812b70d29fc4c05b94c92870923efc3ca3c841dc3d360ac44a4bbc86ae7f287a85d00b8556a28cd9bbbb996cc7673b387c3e58b99269ec1e6fd7cd67cf341725e3e4a7dacc1b68d301eee654d5eb5a1d22528a6f3b5e015c3e7bd8dce3cf664542480159bbf31a90979438abde5138ea6f991f61927104031e9283a6373d26aa25e7f9203f6a5a6261f77dac5b238f4cc6f71c0149abf923f4e8dd78ed33d56091fb42e07c3e5b4288d8c9243b7562ec1dc5b89bdeeb0a7b892e425f1561292529f1f78293c174b8dcb2f04df8272efb3a729928f0fb5e0d2e2838c59aa0d7ebae70f3b517b8492997090b27a4e74ca13231d37931f488cfdd6d895a512dba9e93814a2cf0925abf2f720c39c2bb7963695ff2f970c0fc102daf93dc18dd74e8678f198f0997df8c7cb0cf20abe49671c401024be260a98ffa09ae64a3ad63289ee0def385e6455b777e5998bc90b8aa8e3cc51492335f3975d7e7467bd209a3ee73fc8d8227bb5286d5f6cc7aea4246d13e19c09460fcb066fd4b3905a1e28f722b843341f3f9fb1073da57e5670ddf45c69cc94fcbe14188067a4b619bc5f623d4f5661a5d5e9f23f9ec3011365a6ecad13e4e8eecdfbc0abc517b9ac7322a450d7abee0cb3bdf4aec7a14b0f145581e3b9a000feacac5643a3afa009fd015f55471beca98b2ac7bb62ad670b2b166684657ffff95f4810380ae7381e9bad80a39b10ddcdee4ff382da2265fd4618ddc4f9af58d18b8344290669aeaac9b6ce98220c0d0947af600c1763c5770f5d979b01548f3cd0dd153593b09ef8d9b729767289e83a1f9540fd3488da6374b112c8f58ad130d90e0a4d9fb3f5c1b75c401250b4d4742138288f32c5e24fa211f8ec3511224cecbabb870856f10a95e3073250f621fce3c6804497bdf200971f506f5b359c634c2d2de97b69d1cadbbe911fe6909d67b5cde1424817a270e575bf857dbeddc86aba4a26e5cbfb9025160eb1acc76229edc02a3a648f270198a265575888e156030b36b695c09810b731bddcfd4a70ae9d4c1d386bb18cc75fc1f716d95de19bae6bf244756dce48da9a20271fc51410b4f2157ee8e17af4b68ca97dacc4cd3635c65b4147012d7d5ca69e4cb74effb16526d4e0f3c6baba341aa8eb40f60718938cd18c0e71365c00c788ceae4edc0f84fa86234df57a76181ae353a9c99676b7ba2083034e852c90406215271e221c80cbff24c7410d3ca7a6d7b24ce2fb8d725fde3badce41231d5dd8cdd7499e418b648c00af75d184a2ceae14d229cd0908a25a9c4fd3e8f1683e2bd7d3cecfa097daa184b55806033287f7030bb6cfd9c4cf294612f3ff29ace44fb3a34f8e4b0aeaf5ae48d21e5b0a8791da1a221e6cf89e9722e6a5d3a902d4a7be440219016ae52bd72c3129ac5f6e95f659d55a28c62911542e63d620ded8038ac5a01b9be8d6fa3e7a89bf8c84f0ccd204a15c0d259daf2091d84c73d638a1f9fc35cbac60f32942a7c8ad1b8dd84cb0a032ae5d718cea8039093ba0e5e7051821dabfa0c7198c200e2c732922d20d86f1f9c7935adaefe907dd7fe43b7fbfe9c0e10f0c81c5103d9fde298565760f5483a72e49cb83d43150130ebf6bde352b140276d0b995c18cc050e763c80b00fcf3dedc08ee911aed142917e19533ff83ebd4d1a144e10ccba001389ee5dd4a856720ee49f7fe29273de2a8c907a66ec9578af711fe22c55f7cd11b64c5e504f8888d94a2c48c5e0dc283e0d80001d9eedee51a5cca3db727647933139f94145eac4a6feb22e7f6bfe61d4a9ea143aeeae0ac3dc82c4d575d76ec5cace6965cc0cbaa45cf923d8031d494f7fb38ec7a209c7efcfd2e2434f7d4bfcab6bc59756d73efc93aab7a27eea445a23e8265566e29af043cf1f08ab2ef31c64980d6d2fd9094a25420fc677babf4396421dc83878eabb262806a4e62f5fd5e2721f4523ae042df2b079f826d7f3b9f848bffade139f5c893a928a2feac9de63456517f92680da99076f8bd85a3c371c5b23fddc566ba5dcf33d5619de1f8ced443831be85c1b3bfd7eb3661e601303223cf9aba09a6fa4a46fb1a6a3919b027d9cac5aa689f9d686d311e8534cd1d0e5d0ab3c293f21e95c10fddfc8f6784039d395b71881dba75f2d8b0797f3c545da451b7e572ce60128d3eb98e03de70961b8a71462971e7f63a4690b0ea34dfefa58af4f4e21177da912ed3696a21bfcec738a032efc7bb70191bb2d2d0d00a00000000000000000000000000000000000000000000000000000000000000000880000000000000000b902540000343400003534003132380000003100313337000037310031313400313431003132320000003800003530000037320000333600003735000000330000393300003837003134360000353800313234000031330000333900003830003131350000333500313235000039300031323000313039000036380000343600003431000031380000313000313434003130360031313700313236003134300000343900003634000000370000373600003639000035360000323000003734003130320000003600313233003133350031313300313130000038360000343700003636000032370000383900003137000039320031333000003834003133320000323100000034003130350000333300313132003131390000003500313437000032320031303400313237000037380000343300313432000032360000003900003935000038320031313800313333000034300000353700003435000031360031333800313239003130330000363500003937000032390000333100003234003131310000343200003739000034380000383300313435000035330000363200003235003131360000363700313339000038310000313100003539000031350031343800003338000037370000353200313231003133360000003000003337000031340031303100003535000039380000313200003835000037300000383800003934000039390000363300313038000037330031303700000032000032330000333000003931003133310000333400003936000036300000353100003332000036310031343300313334000032380031303000003139b84151dc386b016f60fefb205bee4435236c3562fe260ae74aca7f071a9af494933f2ea9b3232c58fd9c027a118bdf6e5f52217398f4e552e42bc14e024c33f1458b0094e1bf7656cbce2c6f33c913c9ed6f3315a2891092c0c0")
	var block Block
	if err := rlp.DecodeBytes(blockEnc, &block); err != nil {
		t.Fatal("decode error: ", err)
	}

	check := func(f string, got, want interface{}) {
		if !reflect.DeepEqual(got, want) {
			t.Errorf("%s mismatch: got %v, want %v", f, got, want)
		}
	}

	check("Difficulty", block.Difficulty(), big.NewInt(0x96))
	check("GasLimit", block.GasLimit(), uint64(0x501bd00))
	check("GasUsed", block.GasUsed(), uint64(0))
	check("Coinbase", block.Coinbase(), common.HexToAddress("0x0000000000000000000000000000000000000000"))
	check("MixDigest", block.MixDigest(), common.HexToHash("0x0000000000000000000000000000000000000000000000000000000000000000"))
	check("Parents", block.ParentHash(), common.HexToHash("0x9f87a16d6442e06874228069210d1dc2ff4d6e8ca3ca5dca6fb71af9b9dce065"))
	check("Root", block.Root(), common.HexToHash("0x21d03f50da45a21dc361bc56415c82133b4d983be7ac8b6a052a8afd00887146"))
	check("Receipts", block.ReceiptHash(), common.HexToHash("0x56e81f171bcc55a6ff8345e692c0f86e5b48e01b996cadc001622fb5e363b421"))
	check("Transactions", block.TxHash(), common.HexToHash("0x56e81f171bcc55a6ff8345e692c0f86e5b48e01b996cadc001622fb5e363b421"))
	check("Nonce", block.Nonce(), uint64(0x0000000000000000))
	check("Time", block.Time(), uint64(0x5c5b0eb1))
	check("Size", block.Size(), uint64(len(blockEnc)))
	check("Posv", block.Header().Posv, true)
	check("NewAttesters", block.Header().NewAttestors, common.FromHex("0x0000343400003534003132380000003100313337000037310031313400313431003132320000003800003530000037320000333600003735000000330000393300003837003134360000353800313234000031330000333900003830003131350000333500313235000039300031323000313039000036380000343600003431000031380000313000313434003130360031313700313236003134300000343900003634000000370000373600003639000035360000323000003734003130320000003600313233003133350031313300313130000038360000343700003636000032370000383900003137000039320031333000003834003133320000323100000034003130350000333300313132003131390000003500313437000032320031303400313237000037380000343300313432000032360000003900003935000038320031313800313333000034300000353700003435000031360031333800313239003130330000363500003937000032390000333100003234003131310000343200003739000034380000383300313435000035330000363200003235003131360000363700313339000038310000313100003539000031350031343800003338000037370000353200313231003133360000003000003337000031340031303100003535000039380000313200003835000037300000383800003934000039390000363300313038000037330031303700000032000032330000333000003931003133310000333400003936000036300000353100003332000036310031343300313334000032380031303000003139"))
	check("Attestor", block.Header().Attestor, common.FromHex("0x51dc386b016f60fefb205bee4435236c3562fe260ae74aca7f071a9af494933f2ea9b3232c58fd9c027a118bdf6e5f52217398f4e552e42bc14e024c33f1458b00"))
	check("Penalties", block.Header().Penalties, common.FromHex("0xe1bf7656cbce2c6f33c913c9ed6f3315a2891092"))
	check("Hash", block.Hash(), common.HexToHash("0x8800ab1962632a8a00d71e34929743d6279cf01d8ba3eaed9126605a516f77ec"))

	ourBlockEnc, err := rlp.EncodeToBytes(&block)
	if err != nil {
		t.Fatal("encode error: ", err)
	}
	if !bytes.Equal(ourBlockEnc, blockEnc) {
		t.Errorf("encoded block mismatch:\ngot:  %x\nwant: %x", ourBlockEnc, blockEnc)
	}
}
